{"abi":[{"type":"constructor","inputs":[{"name":"_idrx","type":"address","internalType":"address"},{"name":"_superAdmin","type":"address","internalType":"address"},{"name":"_protocolTreasury","type":"address","internalType":"address"},{"name":"_entryPoint","type":"address","internalType":"address"}],"stateMutability":"nonpayable"},{"type":"function","name":"DEFAULT_ADMIN_ROLE","inputs":[],"outputs":[{"name":"","type":"bytes32","internalType":"bytes32"}],"stateMutability":"view"},{"type":"function","name":"ENTRY_POINT","inputs":[],"outputs":[{"name":"","type":"address","internalType":"address"}],"stateMutability":"view"},{"type":"function","name":"IDRX","inputs":[],"outputs":[{"name":"","type":"address","internalType":"address"}],"stateMutability":"view"},{"type":"function","name":"MAX_PLATFORM_FEE_BPS","inputs":[],"outputs":[{"name":"","type":"uint16","internalType":"uint16"}],"stateMutability":"view"},{"type":"function","name":"SUPERADMIN_ROLE","inputs":[],"outputs":[{"name":"","type":"bytes32","internalType":"bytes32"}],"stateMutability":"view"},{"type":"function","name":"allVaults","inputs":[{"name":"","type":"uint256","internalType":"uint256"}],"outputs":[{"name":"","type":"address","internalType":"address"}],"stateMutability":"view"},{"type":"function","name":"companyVaults","inputs":[{"name":"","type":"address","internalType":"address"}],"outputs":[{"name":"","type":"address","internalType":"address"}],"stateMutability":"view"},{"type":"function","name":"deployVault","inputs":[{"name":"hrAuthority","type":"address","internalType":"address"},{"name":"companyName","type":"string","internalType":"string"},{"name":"sbtContract","type":"address","internalType":"address"}],"outputs":[{"name":"","type":"address","internalType":"address"}],"stateMutability":"nonpayable"},{"type":"function","name":"emergencyFreezeAll","inputs":[],"outputs":[],"stateMutability":"nonpayable"},{"type":"function","name":"getRoleAdmin","inputs":[{"name":"role","type":"bytes32","internalType":"bytes32"}],"outputs":[{"name":"","type":"bytes32","internalType":"bytes32"}],"stateMutability":"view"},{"type":"function","name":"getTotalVaults","inputs":[],"outputs":[{"name":"","type":"uint256","internalType":"uint256"}],"stateMutability":"view"},{"type":"function","name":"grantRole","inputs":[{"name":"role","type":"bytes32","internalType":"bytes32"},{"name":"account","type":"address","internalType":"address"}],"outputs":[],"stateMutability":"nonpayable"},{"type":"function","name":"hasRole","inputs":[{"name":"role","type":"bytes32","internalType":"bytes32"},{"name":"account","type":"address","internalType":"address"}],"outputs":[{"name":"","type":"bool","internalType":"bool"}],"stateMutability":"view"},{"type":"function","name":"platformFeeBps","inputs":[],"outputs":[{"name":"","type":"uint16","internalType":"uint16"}],"stateMutability":"view"},{"type":"function","name":"protocolTreasury","inputs":[],"outputs":[{"name":"","type":"address","internalType":"address"}],"stateMutability":"view"},{"type":"function","name":"renounceRole","inputs":[{"name":"role","type":"bytes32","internalType":"bytes32"},{"name":"callerConfirmation","type":"address","internalType":"address"}],"outputs":[],"stateMutability":"nonpayable"},{"type":"function","name":"revokeRole","inputs":[{"name":"role","type":"bytes32","internalType":"bytes32"},{"name":"account","type":"address","internalType":"address"}],"outputs":[],"stateMutability":"nonpayable"},{"type":"function","name":"setPlatformFee","inputs":[{"name":"bps","type":"uint16","internalType":"uint16"}],"outputs":[],"stateMutability":"nonpayable"},{"type":"function","name":"setProtocolTreasury","inputs":[{"name":"newTreasury","type":"address","internalType":"address"}],"outputs":[],"stateMutability":"nonpayable"},{"type":"function","name":"supportsInterface","inputs":[{"name":"interfaceId","type":"bytes4","internalType":"bytes4"}],"outputs":[{"name":"","type":"bool","internalType":"bool"}],"stateMutability":"view"},{"type":"event","name":"PlatformFeeUpdated","inputs":[{"name":"newBps","type":"uint16","indexed":false,"internalType":"uint16"}],"anonymous":false},{"type":"event","name":"ProtocolTreasuryUpdated","inputs":[{"name":"newTreasury","type":"address","indexed":true,"internalType":"address"}],"anonymous":false},{"type":"event","name":"RoleAdminChanged","inputs":[{"name":"role","type":"bytes32","indexed":true,"internalType":"bytes32"},{"name":"previousAdminRole","type":"bytes32","indexed":true,"internalType":"bytes32"},{"name":"newAdminRole","type":"bytes32","indexed":true,"internalType":"bytes32"}],"anonymous":false},{"type":"event","name":"RoleGranted","inputs":[{"name":"role","type":"bytes32","indexed":true,"internalType":"bytes32"},{"name":"account","type":"address","indexed":true,"internalType":"address"},{"name":"sender","type":"address","indexed":true,"internalType":"address"}],"anonymous":false},{"type":"event","name":"RoleRevoked","inputs":[{"name":"role","type":"bytes32","indexed":true,"internalType":"bytes32"},{"name":"account","type":"address","indexed":true,"internalType":"address"},{"name":"sender","type":"address","indexed":true,"internalType":"address"}],"anonymous":false},{"type":"event","name":"VaultDeployed","inputs":[{"name":"hrAuthority","type":"address","indexed":true,"internalType":"address"},{"name":"vaultAddress","type":"address","indexed":true,"internalType":"address"},{"name":"companyName","type":"string","indexed":false,"internalType":"string"}],"anonymous":false},{"type":"error","name":"AccessControlBadConfirmation","inputs":[]},{"type":"error","name":"AccessControlUnauthorizedAccount","inputs":[{"name":"account","type":"address","internalType":"address"},{"name":"neededRole","type":"bytes32","internalType":"bytes32"}]}],"bytecode":{"object":"0x60c0346100f057601f6160d438819003918201601f19168301916001600160401b038311848410176100f4578084926080946040528339810103126100f0578061004b6100b992610108565b9061005860208201610108565b91610071606061006a60408501610108565b9301610108565b60809190915260a0526001600160a01b038116156100e9575b600180546001600160a01b0319166001600160a01b03929092169190911790556100b38161011c565b50610192565b50604051615e4e90816102268239608051818181610138015261025e015260a0518181816102ae01526105270152f35b508061008a565b5f80fd5b634e487b7160e01b5f52604160045260245ffd5b51906001600160a01b03821682036100f057565b6001600160a01b0381165f9081525f805160206160b4833981519152602052604090205460ff1661018d576001600160a01b03165f8181525f805160206160b483398151915260205260408120805460ff191660011790553391905f805160206160748339815191528180a4600190565b505f90565b6001600160a01b0381165f9081525f80516020616094833981519152602052604090205460ff1661018d576001600160a01b03165f8181525f8051602061609483398151915260205260408120805460ff191660011790553391907f2a287b3aa9cbc4866dd3c137fd192f1c5d81e788c6916b80b84b385305538d23905f805160206160748339815191529080a460019056fe6080806040526004361015610012575f80fd5b5f3560e01c90816301ffc9a7146108cf575080630c5a61f81461083457806322dcd13e14610810578063248a9ca3146107ea5780632f2ff15d146107b957806336568abe146107755780635486f100146107585780635cbc742c146106a857806362c5921214610623578063803db96d146105fb5780638d01513c146105e05780639094a91e1461059e57806391d148541461055657806394430fa514610512578063a217fddf146104f8578063d547741f146104c0578063da98871e14610480578063dda0c72114610167578063ef187921146101235763fce0c454146100f8575f80fd5b3461011f575f36600319011261011f5760206040515f80516020615e2e8339815191528152f35b5f80fd5b3461011f575f36600319011261011f576040517f00000000000000000000000000000000000000000000000000000000000000006001600160a01b03168152602090f35b3461011f57606036600319011261011f57610180610922565b602435906001600160401b03821161011f573660238301121561011f5760048201356001600160401b03811161039257604051926101c8601f8301601f19166020018561097a565b818452366024838301011161011f57815f9260246020930183870137840101526044356001600160a01b038116919082900361011f576001600160a01b031690338214801561045c575b156104225781156103ea575f828152600260205260409020546001600160a01b03166103b157604051906152b2908183016001600160401b03811184821017610392578392610b5c84397f00000000000000000000000000000000000000000000000000000000000000006001600160a01b031681526020810185905260a0604082018190526102a4908201876109ae565b60608201929092527f00000000000000000000000000000000000000000000000000000000000000006001600160a01b031660809091015203905ff080156103a6575f82815260026020526040902080546001600160a01b0319166001600160a01b039290921691821790556003549091600160401b821015610392577fb2e029ab52a406bb52fae42d1d1e5dca2793900c250a242af032038b02eb865961038760209561035985600188970160035561094e565b81546001600160a01b0360039290921b91821b19169087901b179055604051878152918291888301906109ae565b0390a3604051908152f35b634e487b7160e01b5f52604160045260245ffd5b6040513d5f823e3d90fd5b60405162461bcd60e51b81526020600482015260116024820152701214905b1c9958591e52185cd5985d5b1d607a1b6044820152606490fd5b60405162461bcd60e51b815260206004820152601060248201526f496e76616c696448524164647265737360801b6044820152606490fd5b60405162461bcd60e51b815260206004820152601260248201527127b7363ca42937b929bab832b920b236b4b760711b6044820152606490fd5b50335f9081525f80516020615e0e833981519152602052604090205460ff16610212565b3461011f57602036600319011261011f576001600160a01b036104a1610922565b165f526002602052602060018060a01b0360405f205416604051908152f35b3461011f57604036600319011261011f576104f66004356104df610938565b906104f16104ec8261099d565b610a1b565b610adb565b005b3461011f575f36600319011261011f5760206040515f8152f35b3461011f575f36600319011261011f576040517f00000000000000000000000000000000000000000000000000000000000000006001600160a01b03168152602090f35b3461011f57604036600319011261011f5761056f610938565b6004355f525f60205260405f209060018060a01b03165f52602052602060ff60405f2054166040519015158152f35b3461011f57602036600319011261011f5760043560035481101561011f576105c760209161094e565b905460405160039290921b1c6001600160a01b03168152f35b3461011f575f36600319011261011f57602060405160648152f35b3461011f575f36600319011261011f576001546040516001600160a01b039091168152602090f35b3461011f575f36600319011261011f5761063b6109d2565b5f5b6003548110156104f6576106508161094e565b905460039190911b1c6001600160a01b031690813b1561011f575f809260046040518095819363e9aa774f60e01b83525af19182156103a657600192610698575b500161063d565b5f6106a29161097a565b82610691565b3461011f57602036600319011261011f5760043561ffff81169081810361011f576106d16109d2565b60648211610726576001805461ffff60a01b191660a09290921b61ffff60a01b169190911790556040519081527f8043734007c449f33c5ec8cb55f80415b9bed289de65701af55e6be91da1e7a190602090a1005b60405162461bcd60e51b815260206004820152600a60248201526908ccacaa8dede90d2ced60b31b6044820152606490fd5b3461011f575f36600319011261011f576020600354604051908152f35b3461011f57604036600319011261011f5761078e610938565b336001600160a01b038216036107aa576104f690600435610adb565b63334bd91960e11b5f5260045ffd5b3461011f57604036600319011261011f576104f66004356107d8610938565b906107e56104ec8261099d565b610a53565b3461011f57602036600319011261011f57602061080860043561099d565b604051908152f35b3461011f575f36600319011261011f57602061ffff60015460a01c16604051908152f35b3461011f57602036600319011261011f5761084d610922565b6108556109d2565b6001600160a01b0316801561089c57600180546001600160a01b031916821790557fb141872ee67913e1bc546464f29b6b07a65159d45c6af64fdecf8b4129157faf5f80a2005b60405162461bcd60e51b815260206004820152600b60248201526a5a65726f4164647265737360a81b6044820152606490fd5b3461011f57602036600319011261011f576004359063ffffffff60e01b821680920361011f57602091637965db0b60e01b8114908115610911575b5015158152f35b6301ffc9a760e01b1490508361090a565b600435906001600160a01b038216820361011f57565b602435906001600160a01b038216820361011f57565b6003548110156109665760035f5260205f2001905f90565b634e487b7160e01b5f52603260045260245ffd5b601f909101601f19168101906001600160401b0382119082101761039257604052565b5f525f602052600160405f20015490565b805180835260209291819084018484015e5f828201840152601f01601f1916010190565b335f9081525f80516020615e0e833981519152602052604090205460ff16156109f757565b63e2517d3f60e01b5f52336004525f80516020615e2e83398151915260245260445ffd5b5f8181526020818152604080832033845290915290205460ff1615610a3d5750565b63e2517d3f60e01b5f523360045260245260445ffd5b5f818152602081815260408083206001600160a01b038616845290915290205460ff16610ad5575f818152602081815260408083206001600160a01b0395909516808452949091528120805460ff19166001179055339291907f2f8788117e7eff1d82e926ec794901d17c78024a50270940304540a733656f0d9080a4600190565b50505f90565b5f818152602081815260408083206001600160a01b038616845290915290205460ff1615610ad5575f818152602081815260408083206001600160a01b0395909516808452949091528120805460ff19169055339291907ff6391f5c32d9c69d2a47ea670b442974b53935d1edc7fd64eb21e047a839171b9080a460019056fe60e08060405234610536576152b2803803809161001c8285610560565b8339810160a0828203126105365761003382610583565b9161004060208201610583565b60408201519091906001600160401b0381116105365781019383601f860112156105365784516001600160401b0381116104aa576040519561008c601f8301601f191660200188610560565b81875260208701956020838301011161053657815f926020809301885e870101526100b960608301610583565b916001600160a01b03906100cf90608001610583565b1660017f9b779b17422d0df92223018b32b4d1fa46e071723d6817e2486d003becc55f0055331561054d57610103336106a0565b6040516301ffc9a760e01b815263122a0e9b60e31b6004820152602081602481855afa908115610542575f91610503575b50156104be576080526001600160a01b031660a052600380546001600160a01b0319163317905560c082905283516001600160401b0381116104aa57600454600181811c911680156104a0575b602082101461048c57601f8111610429575b506020601f82116001146103b35791815f80516020615272833981519152959492610219945f916103a8575b508160011b915f199060031b1c1916176004555b6005805460ff19166001179055600280546001600160a01b0319166001600160a01b039290921691909117905561020981610597565b506102138161060d565b506106a0565b604060018060a01b0360c05116938151928391602083525180918160208501528484015e5f828201840152601f01601f19168101030190a2604051614b4990816106e9823960805181818161055c01528181610c8a015281816120b2015281816122e8015281816125b90152818161264d0152818161411101526146be015260a051818181610a4801528181610bc201528181610fa001528181611068015281816113a701528181611ead0152818161310c01528181613183015281816135970152613aa6015260c0518181816106fd015281816108e201528181610a8101528181610bff01528181610e2601528181611094015281816112290152818161174f01528181611a1401528181611d1601528181611e1401528181611f2b015281816121dd015281816124910152818161284701528181612a2001528181612b7301528181612cfb01528181612e1901528181613091015281816131b9015281816133f0015281816134b401528181613553015281816139b50152818161433a0152818161442101526145480152f35b90508701515f6101bf565b601f1982169060045f52805f20915f5b8181106104115750926102199492600192825f80516020615272833981519152999896106103f9575b5050811b016004556101d3565b8901515f1960f88460031b161c191690555f806103ec565b9192602060018192868c0151815501940192016103c3565b60045f527f8a35acfbc15ff81a39ae7d344fd709f28e8600b4aa8c65c6b64bfe7fe36bd19b601f830160051c81019160208410610482575b601f0160051c01905b8181106104775750610193565b5f815560010161046a565b9091508190610461565b634e487b7160e01b5f52602260045260245ffd5b90607f1690610181565b634e487b7160e01b5f52604160045260245ffd5b60405162461bcd60e51b815260206004820152601e60248201527f49456e747279506f696e7420696e74657266616365206d69736d6174636800006044820152606490fd5b90506020813d60201161053a575b8161051e60209383610560565b8101031261053657518015158103610536575f610134565b5f80fd5b3d9150610511565b6040513d5f823e3d90fd5b631e4fbdf760e01b5f525f60045260245ffd5b601f909101601f19168101906001600160401b038211908210176104aa57604052565b51906001600160a01b038216820361053657565b6001600160a01b0381165f9081525f80516020615292833981519152602052604090205460ff16610608576001600160a01b03165f8181525f8051602061529283398151915260205260408120805460ff191660011790553391905f805160206152328339815191528180a4600190565b505f90565b6001600160a01b0381165f9081525f80516020615252833981519152602052604090205460ff16610608576001600160a01b03165f8181525f8051602061525283398151915260205260408120805460ff191660011790553391907ffd70517941c75212b0f9013e45c47a37d6d983c5304288c7af285f2ea40cbba7905f805160206152328339815191529080a4600190565b600180546001600160a01b039283166001600160a01b0319821681179092559091167f8be0079c531659141344cd1fd0a4f28419497f9722a3daafe3b4186f6b6457e05f80a356fe60806040526004361015610011575f80fd5b5f3560e01c806301ffc9a7146104da5780630396cb60146104d557806306158360146104d057806307e0b4f7146104cb57806307f1b5da146104c6578063086e42d2146104c15780630bf2b21a146104bc5780630bf6cc0814610386578063182dafff146104b7578063200d2ed2146104b25780632057420b146104ad578063205c2878146104a857806320ec5935146104a3578063248a9ca31461049e5780632f2ff15d1461049957806336568abe14610494578063412fe67e1461048f57806345cd625f1461048a5780634921f0001461048557806352b7512c146104805780635488d1231461047b5780635eda058f14610476578063603c18f11461047157806362d51ac61461046c578063715018a6146104675780637c627b21146104625780638a0121611461045d5780638bc68fef146104585780638da5cb5b146104535780638de95c801461044e5780638e7579a11461044957806391d14854146104445780639247ab141461043f57806395a4cdcb1461043a5780639869e137146104355780639b87a40d146104305780639bf7c4c81461042b5780639d3cb9a5146104265780639e0879c214610421578063a217fddf1461041c578063ab7bd15014610417578063abe73ef514610412578063af8df99d1461040d578063b0d691fe14610408578063b624abe314610403578063ba49065a146103fe578063bb9fe6bf146103f9578063bba668f3146103f4578063be497005146103ef578063bea069e3146103ea578063c23a5cea146103e5578063c399ec88146103db578063c45a0155146103e0578063c52edc9c146103db578063c6726527146103d6578063c70e1972146103d1578063cc11ea05146103cc578063cfa0e4e5146103c7578063d0e30db0146103c2578063d547741f146103bd578063d66b5ea6146103b8578063d6e597eb146103b3578063d7290fed146103ae578063d7b92d45146103a9578063dcfa7db3146103a4578063df87df6d1461039f578063e4c0b6fa1461039a578063e62dad9814610395578063e9aa774f14610390578063ece76f8c1461038b578063ed12e8ef14610386578063ef18792114610381578063f2fde38b1461037c578063f3c6a19814610377578063f5ec2eed14610372578063fc4d0e3f1461036d5763ff96433e14610368575f80fd5b6137cc565b6137af565b6136ec565b61363d565b6135c6565b613582565b610976565b61353e565b61347c565b613441565b6133a0565b613384565b613360565b612e67565b612d7f565b612c2c565b612c08565b612bd4565b612bc1565b612abf565b612aa2565b612947565b6126f1565b612622565b6126bd565b612591565b612575565b61250c565b61233d565b6122cd565b612242565b6120e1565b61209d565b611fae565b611e62565b611d7e565b611d64565b611cae565b611b74565b611b0e565b611a98565b611a71565b6119ac565b611943565b611902565b6118db565b6118a0565b611878565b611841565b611824565b6117c6565b61177e565b61164a565b61162f565b6115e2565b61156f565b6112ef565b611105565b610fec565b610efc565b610eb4565b610e7b565b610e55565b610d02565b610c5e565b610b3f565b610b16565b610993565b61083c565b61081f565b61075d565b610619565b6105e0565b610534565b346105305760203660031901126105305760043563ffffffff60e01b811680910361053057602090637965db0b60e01b811490811561051f575b506040519015158152f35b6301ffc9a760e01b1490505f610514565b5f80fd5b5f60203660031901126105305760043563ffffffff81168091036105305761055a6141a0565b7f00000000000000000000000000000000000000000000000000000000000000006001600160a01b031690813b15610530575f90602460405180948193621cb65b60e51b8352600483015234905af180156105c5576105b7575080f35b6105c391505f906136b0565b005b613883565b5f91031261053057565b6001600160a01b031690565b34610530575f366003190112610530576002546040516001600160a01b039091168152602090f35b6001600160a01b0381160361053057565b346105305760403660031901126105305760043561063681610608565b6024355f80516020614b298339815191525f90815260205260ff610667335f80516020614a69833981519152611512565b54161561074f576106888161067b8461147c565b905f5260205260405f2090565b916002830154156107405760038301926106a7845460ff9060081c1690565b6106b081611527565b610731575f80516020614a49833981519152916106d8600161072c9301955f8754975561388e565b6106ec6106e7866008546138c1565b600855565b6040516001600160a01b03918216957f000000000000000000000000000000000000000000000000000000000000000090921694909283929091836138ce565b0390a3005b63eb814b8960e01b5f5260045ffd5b6366953a4360e01b5f5260045ffd5b6282b42960e81b5f5260045ffd5b346105305760203660031901126105305760043561077a81610608565b5f80516020614b298339815191525f90815260205260ff6107a8335f80516020614a69833981519152611512565b54161561074f576001600160a01b0381165f908152600c60205260409020805460a081901c60ff1615908115610810575b5061080157600101544210156107f2576105c3906138df565b6328a7237960e01b5f5260045ffd5b63d7c135bd60e01b5f5260045ffd5b60a81c60ff161590505f6107d9565b34610530575f366003190112610530576020600654604051908152f35b346105305760203660031901126105305760043561085981610608565b5f80516020614b298339815191525f90815260205260ff610887335f80516020614a69833981519152611512565b54161561074f5761089781611495565b60048101805460ff16916108aa83610b07565b600383148015610965575b610956576001836108c86108d495610b07565b14610915575b50613b63565b6001600160a01b03908116907f0000000000000000000000000000000000000000000000000000000000000000165f80516020614a298339815191525f80a3005b61094b81610950925461092e6002830191825490614212565b61093d600384019182546138c1565b905542905554600754613b56565b600755565b5f6108ce565b6393813ce160e01b5f5260045ffd5b5061096f83610b07565b82156108b5565b34610530575f366003190112610530576020600854604051908152f35b34610530576020366003190112610530576004356109b081610608565b5f80516020614b298339815191525f90815260205260ff6109de335f80516020614a69833981519152611512565b54161561074f576109ed6141c7565b6109f6816114ae565b600381016001610a07825460ff1690565b610a1081611527565b03610ae457600854825411610ad557610a2890613b70565b610a386106e78254600854613b56565b610a40614502565b610a6c8154837f00000000000000000000000000000000000000000000000000000000000000006144aa565b546040519081526001600160a01b03918216917f000000000000000000000000000000000000000000000000000000000000000016907f48f3e1619bc6a745785ca1544de74ee315c9c54207c854bf551f291c55fb32369080602081015b0390a36105c36141ff565b6314ecd6c760e01b5f5260045ffd5b630b4560db60e21b5f5260045ffd5b634e487b7160e01b5f52602160045260245ffd5b60041115610b1157565b610af3565b34610530575f36600319011261053057602060ff6005541660405190610b3b81610b07565b8152f35b3461053057604036600319011261053057600435602435610b5f81610608565b5f80516020614b298339815191525f90815260205260ff610b8d335f80516020614a69833981519152611512565b54161561074f57610b9c6141c7565b600854828110610ad557828103908111610c5957600855610bbb614502565b610be682827f00000000000000000000000000000000000000000000000000000000000000006144aa565b604080519283526001600160a01b0391821660208401527f0000000000000000000000000000000000000000000000000000000000000000909116917f206aa7a554b159e2a8d0fdfafcea6f7e1fb1129f0b29f539541bbfd903cb5c109190a260015f80516020614b0983398151915255005b61389d565b34610530575f604036600319011261053057600435610c7c81610608565b60243590610c886141a0565b7f00000000000000000000000000000000000000000000000000000000000000006001600160a01b031691823b156105305760405163040b850f60e31b81526001600160a01b0390921660048301526024820152905f908290604490829084905af180156105c5576105b7575080f35b6003111561053057565b3461053057608036600319011261053057600435610d1f81610608565b6024359060643590604435610d3383610cf8565b5f80516020614b298339815191525f90815260205260ff610d61335f80516020614a69833981519152611512565b54161561074f57610d73428211613be2565b8360085410610ad5577f9cf0f9f91611fbecab40c4a2e01c07a4125a3f9055f09269d976fa71340b83f89161072c60065494610db6610db187613c1c565b600655565b610dfe610dc1613c2a565b6001600160a01b0385168152886020820152856040820152610de68360608301613c57565b5f6080820152610df98861067b8761147c565b613c82565b610e0d6106e788600854613b56565b610e15614502565b6040516001600160a01b03938416977f00000000000000000000000000000000000000000000000000000000000000009094169690948594909185613cff565b34610530576020366003190112610530576020610e73600435613d20565b604051908152f35b34610530576040366003190112610530576105c3602435600435610e9e82610608565b610eaf610eaa82613d20565b6145a8565b6145de565b3461053057604036600319011261053057600435602435610ed481610608565b336001600160a01b03821603610eed576105c39161464e565b63334bd91960e11b5f5260045ffd5b3461053057602036600319011261053057600435610f186141c7565b610f258161067b3361147c565b6002810154908115610740576003810191610f45835460ff9060081c1690565b610f4e81611527565b610731574210610fdd577f5b4666a92bfb49b547b6b386c07eaf8a6a3c7d6d40e243bc7ba4f94411aedce091610f996001610fd29301915f8354935561010061ff0019825416179055565b610fc481337f00000000000000000000000000000000000000000000000000000000000000006144aa565b6040519182913395836138ce565b0390a26105c36141ff565b63392a328760e01b5f5260045ffd5b346105305760403660031901126105305760043560243561100c81610608565b5f80516020614b298339815191525f90815260205260ff61103a335f80516020614a69833981519152611512565b54161561074f576110496141c7565b6009548281106110f657828103908111610c595761108c9183916009557f00000000000000000000000000000000000000000000000000000000000000006144aa565b6040519081527f00000000000000000000000000000000000000000000000000000000000000006001600160a01b0316907fac9c64bd45bc4c62e546d0f3ea901dbc06c0ae8273403dba2aa8659854ca1b9d90602090a260015f80516020614b0983398151915255005b631e8ea6b960e11b5f5260045ffd5b346105305760203660031901126105305760043561112281610608565b5f80516020614b298339815191525f90815260205260ff611150335f80516020614a69833981519152611512565b54161561074f5761115f6141c7565b61116881611495565b906004820191611179835460ff1690565b9261118384610b07565b83156112a05761119284610b07565b60038414610956576111a3836114c7565b9360018501916111b4835460ff1690565b6111bd81611527565b611291576111f7936001836108c86111d495610b07565b6111e56111e0846114ae565b61245e565b5f84549455600160ff19825416179055565b6112066106e7836008546138c1565b61120f816142a6565b6112188161437c565b6040516001600160a01b03918216927f0000000000000000000000000000000000000000000000000000000000000000909216917fe2d80326f5966714f089f2bc8d25c1c389f95ed665bd6ad2c5d709b68ece29f491908190610aca9086865f80516020614a298339815191525f80a382526020820190565b633970444160e11b5f5260045ffd5b630b094f2760e31b5f5260045ffd5b805180835260209291819084018484015e5f828201840152601f01601f1916010190565b919060206112ea5f926040865260408601906112af565b930152565b34610530576060366003190112610530576004356001600160401b03811161053057806004019061012060031982360301126105305761132d6146bc565b600161134d60046113456113408661472b565b611495565b015460ff1690565b61135681610b07565b0361074f5761137291606461136c920190614735565b906149aa565b91611393575b61138f611383614782565b604051918291826112d3565b0390f35b60018060a01b0316308114908161142d575b7f00000000000000000000000000000000000000000000000000000000000000006001600160a01b03161491826113f5575b501590816113ec575b5061074f575f80611378565b9050155f6113e0565b9091506001600160e01b03191663095ea7b360e01b811490811561141c575b50905f6113d7565b63a9059cbb60e01b1490505f611414565b90506001600160e01b0319821663d7b92d4560e01b811490811561146b575b811561145a575b50906113a5565b6363870cb960e11b1490505f611453565b632097f33f60e11b8114915061144c565b6001600160a01b03165f908152600d6020526040902090565b6001600160a01b03165f908152600a6020526040902090565b6001600160a01b03165f908152600f6020526040902090565b6001600160a01b03165f908152600b6020526040902090565b6001600160a01b03165f908152600c6020526040902090565b6001600160a01b03165f908152600e6020526040902090565b9060018060a01b03165f5260205260405f2090565b60031115610b1157565b9192608093969594919660a084019760018060a01b031684526020840152604083015261155d81611527565b606082015261156b83611527565b0152565b346105305760403660031901126105305760043561158c81610608565b6024359060018060a01b03165f52600d60205260405f20905f5260205260405f2060018060a01b0381541661138f600183015491600360028501549401549060405194859460ff808560081c1694169286611531565b34610530576020366003190112610530576004356115ff81610608565b60018060a01b03165f52600a602052602060ff600460405f2001541661162481610b07565b600160405191148152f35b34610530575f36600319011261053057602060405160c88152f35b346105305760403660031901126105305760043561166781610608565b6024355f80516020614b298339815191525f9081526020529060ff611699335f80516020614a69833981519152611512565b54161561074f576116ab821515613d31565b6116b481611495565b9060016116c5600484015460ff1690565b6116ce81610b07565b036109565761072c7f817d334337ddbb40cade7c12058c70e797a3f60b9779145cbe0a993c125314d091835461170a6002860191825490614212565b611719600387019182546138c1565b905542905561173861094b86611733600754885490613b56565b6138c1565b8354938590556040516001600160a01b03918216957f000000000000000000000000000000000000000000000000000000000000000090921694909283929091836138ce565b34610530575f366003190112610530576117966141a0565b600180546001600160a01b031981169091555f906001600160a01b03165f80516020614a898339815191528280a3005b34610530576080366003190112610530576117e2600435610cf8565b6024356001600160401b03811161053057366023820112156105305760048101356001600160401b0381116105305736910160240111610530576105c36146bc565b34610530575f36600319011261053057602060405162093a808152f35b34610530575f36600319011261053057602061ffff60055460081c16604051908152f35b6001600160a01b03909116815260200190565b34610530575f366003190112610530576001546040516001600160a01b039091168152602090f35b34610530576020366003190112610530576004356118bd81610608565b60018060a01b03165f52600e602052602060405f2054604051908152f35b34610530575f3660031901126105305760206040515f80516020614ae98339815191528152f35b3461053057604036600319011261053057602060ff61193760243560043561192982610608565b5f525f845260405f20611512565b54166040519015158152f35b346105305760203660031901126105305760043561196081610608565b60018060a01b03165f52600b602052608060405f2080549060ff60018201541690600360028201549101549160405193845261199b81611527565b602084015260408301526060820152f35b34610530575f366003190112610530575f80516020614b298339815191525f90815260205260ff6119ea335f80516020614a69833981519152611512565b54161561074f57600554600360ff8216611a0381610b07565b14611a625760ff19166001176005557f00000000000000000000000000000000000000000000000000000000000000006001600160a01b03167fd2619572a1464e0df0bb351d834fd47f3350984d7bfdb1ab69cfcb0b8e4214155f80a2005b63141045f160e31b5f5260045ffd5b34610530576020366003190112610530576020610e73600435611a9381610608565b613d6c565b3461053057602036600319011261053057600435611ab581610608565b60018060a01b03165f52600a6020526040805f20548151903082526020820152f35b94909695919361ffff9360a09560c08801998852602088015260408701526060860152611b0381610b07565b608085015216910152565b3461053057602036600319011261053057600435611b2b81610608565b60018060a01b03165f52600a60205260405f2080549061138f600182015491600281015493600460038301549201549160405195869560ff61ffff8660081c1695169387611ad7565b3461053057602036600319011261053057600435611b9181610608565b611b9a816114e0565b60018101548015610801574210156107f2575f80516020614b298339815191525f908152602052611be2611bdb335f80516020614a69833981519152611512565b5460ff1690565b15611c4557805460a01c60ff16611c3657805460ff60a01b1916600160a01b1790555b33906001600160a01b03167f643369d4dd136686938236b3c40e45ae111003398f6e8261c225a96d9569f75e5f80a3005b63080fc0bd60e11b5f5260045ffd5b5f80516020614ae98339815191525f908152602052611c87611bdb337f68c06e2b5a5f408af650c0dd6cdbaee4296f9ebc32e1f5589514929f6a586a6d611512565b1561074f57805460a81c60ff16611c3657805460ff60a81b1916600160a81b179055611c05565b34610530575f366003190112610530575f80516020614b298339815191525f90815260205260ff611cec335f80516020614a69833981519152611512565b54161561074f57600554600360ff8216611d0581610b07565b14611a625760ff19166002176005557f00000000000000000000000000000000000000000000000000000000000000006001600160a01b03167fdffada2889ebfab9224c24069d833f3de835d8cf99872d49e7b7ba5fccb7a46f5f80a2005b34610530575f3660031901126105305760206040515f8152f35b3461053057602036600319011261053057600435611d9b81610608565b5f80516020614b298339815191525f90815260205260ff611dc9335f80516020614a69833981519152611512565b54161561074f576001600160a01b03165f818152600f602052604090206003015460019060ff16611df981611527565b03610ae457805f52600f602052611e1260405f2061245e565b7f00000000000000000000000000000000000000000000000000000000000000006001600160a01b03167f0f1255e6fdd0713b6703eb544b91b4e7cba027058a3c6b0a734d89c22fe4d0ba5f80a3005b34610530576020366003190112610530576004355f80516020614b298339815191525f90815260205260ff611ea4335f80516020614a69833981519152611512565b54161561074f577f00000000000000000000000000000000000000000000000000000000000000006040516323b872dd60e01b5f5233600452306024528260445260205f60648180865af160015f5114811615611f8f575b6040919091525f60605215611f745750611f1b6106e7826008546138c1565b6040519081526001600160a01b037f000000000000000000000000000000000000000000000000000000000000000016907fba24bd9b798cca64d1031eda1ced9398802343e44e07779bb510d7a21ddddef190602090a2005b635274afe760e01b5f526001600160a01b031660045260245ffd5b6001811516611fa5573d15833b15151616611efc565b503d5f823e3d90fd5b3461053057602036600319011261053057600435611fcb81610608565b5f80516020614b298339815191525f90815260205260ff611ff9335f80516020614a69833981519152611512565b54161561074f576001600160a01b0381165f818152600c6020526040902080549192919060ff60a083901c161591821561208d575b50811561207e575b5061206f576111e0612047916114e0565b33907fae4569a0d7b4c29a56e32d9915c5cfd98105d8cf8574fdac5ca9c60473afe5185f80a3005b630f70748560e21b5f5260045ffd5b6001915001544210155f612036565b90915060a81c60ff16905f61202e565b34610530575f366003190112610530576040517f00000000000000000000000000000000000000000000000000000000000000006001600160a01b03168152602090f35b34610530576040366003190112610530576004356120fe81610608565b6024355f80516020614b298339815191525f90815260205260ff61212f335f80516020614a69833981519152611512565b54161561074f5761213f82611495565b600481015460ff1661215081610b07565b156112a0576001612160846114e0565b01548015159081612238575b5061222a576121c09161217e426138b1565b915490612189613c39565b6001600160a01b038616815292600160208501525f60408501526060840152608083015260a08201526121bb836114e0565b613dfb565b6121c9426138b1565b6040519081526001600160a01b03918216917f000000000000000000000000000000000000000000000000000000000000000016907fb42fee9e285fb0762e67aaf10dedafbf86eb7a7d4615ae80bd2cc6f359ce12b390806020810161072c565b624080c160e61b5f5260045ffd5b905042105f61216c565b346105305760203660031901126105305760043561225f81610608565b6001600160a01b039081165f908152600c60209081526040918290208054600182015460028301546003909301548551968316875260ff60a084811c821615159689019690965260a89390931c9092161515948601949094526060850193909352608084015282015260c090f35b34610530575f80600319360112610530576122e66141a0565b7f00000000000000000000000000000000000000000000000000000000000000006001600160a01b0316803b15610530575f809160046040518094819363bb9fe6bf60e01b83525af180156105c5576105b7575080f35b346105305760403660031901126105305760043561235a81610608565b60243561236681610608565b5f80516020614b298339815191525f90815260205260ff612394335f80516020614a69833981519152611512565b54161561074f576001600160a01b0381811692908116918284146124fd5783156124ee576123c6600461134584611495565b6123cf81610b07565b15610956576123e2600461134583611495565b6123eb81610b07565b6124df578161248e9161240f6124015f95611495565b61240a83611495565b613e7a565b61243861241b83611495565b60045f918281558260018201558260028201558260038201550155565b612452612444836114c7565b61244d836114c7565b613ece565b61247561245e836114c7565b60035f918281558260018201558260028201550155565b612488612481836114f9565b54916114f9565b556114f9565b557f00000000000000000000000000000000000000000000000000000000000000006001600160a01b03167fb5a0028e6a391682ec6a294953d3e5e1972e938e4c5634c8041bce6787fdfffd5f80a4005b6304de039960e01b5f5260045ffd5b63e6c4247b60e01b5f5260045ffd5b63367558c360e01b5f5260045ffd5b346105305760203660031901126105305760043561252981610608565b60018060a01b03165f52600f602052608060405f2080549060018101549060ff6003600283015492015416916040519384526020840152604083015261256e81611527565b6060820152f35b34610530575f3660031901126105305760206040516107d08152f35b34610530575f6020366003190112610530576004356125af81610608565b6125b76141a0565b7f00000000000000000000000000000000000000000000000000000000000000006001600160a01b031690813b156105305760405163611d2e7560e11b81526001600160a01b039091166004820152905f908290602490829084905af180156105c5576105b7575080f35b34610530575f366003190112610530576040516370a0823160e01b81523060048201526020816024817f00000000000000000000000000000000000000000000000000000000000000006001600160a01b03165afa80156105c5576020915f91612690575b50604051908152f35b6126b09150823d84116126b6575b6126a881836136b0565b810190613f07565b5f612687565b503d61269e565b34610530575f366003190112610530576003546040516001600160a01b039091168152602090f35b61ffff81160361053057565b346105305760603660031901126105305760043561270e81610608565b6024356044359161271e836126e5565b5f80516020614b298339815191525f90815260205260ff61274c335f80516020614a69833981519152611512565b54161561074f5761276d600160ff6005541661276781610b07565b14613f16565b612778821515613d31565b61278a61271061ffff85161115613f53565b600161279a600461134584611495565b6127a381610b07565b146124df576127f6612899936127e86127ba613c39565b918583524260208401524260408401525f60608401526127dd6080840160019052565b61ffff1660a0830152565b6127f183611495565b613f95565b612824612801613c48565b5f81525f60208201525f604082015242606082015261281f836114c7565b613fe5565b61283361094b836007546138c1565b6040519182526001600160a01b03818116937f000000000000000000000000000000000000000000000000000000000000000090911692849184917ff85d78bf0952aa4c25571c233942d6465622ecf64f705ab4089c40f3f72d171b9181906020820190565b0390a36128af6128aa6002546105d4565b6105d4565b6001600160a01b0381166128bf57005b6128e56020915f93604051948580948193631f50a13960e31b835233906004840161401a565b03925af15f9181612926575b506128f857005b6040519081527fd6a2e6a5b7fe78d4a49348a151d44bdfd3a1a8f4011447900d50e95cc7819e4390602090a3005b61294091925060203d6020116126b6576126a881836136b0565b905f6128f1565b346105305760203660031901126105305760043561296f600160ff6005541661276781610b07565b61297833611495565b6001612988600483015460ff1690565b61299181610b07565b03610956576129a46003611345336114ae565b6129ad81611527565b60018114612a9357806129c1600292611527565b14612a84576129d36129d89154613b95565b614796565b8111612a75578060085410610ad557612a166129f2613c48565b8281525f602082015242604082015260016060820152612a11336114ae565b6140dd565b60405190815233907f00000000000000000000000000000000000000000000000000000000000000006001600160a01b0316907f986bf69eada934bca5917be244d5232803e4e0d8722ef54cd269423211c1222d90806020810161072c565b637beb4d8d60e11b5f5260045ffd5b63aec7439960e01b5f5260045ffd5b6369c61a8560e01b5f5260045ffd5b34610530575f366003190112610530576020600954604051908152f35b3461053057602036600319011261053057600435612adc81610608565b5f80516020614b298339815191525f90815260205260ff612b0a335f80516020614a69833981519152611512565b54161561074f576001600160a01b03165f818152600a6020526040902060048101805460019060ff16612b3c81610b07565b036109565781612b71925490612b676003612b5d6002840194855490614212565b92019182546138c1565b9055429055613b70565b7f00000000000000000000000000000000000000000000000000000000000000006001600160a01b03167ff01182745004ed4636151aafed248184aa1665ddaf7ec5489a2f03c8b9f8a5265f80a3005b5f366003190112610530576105c361410f565b34610530576040366003190112610530576105c3602435600435612bf782610608565b612c03610eaa82613d20565b61464e565b34610530575f36600319011261053057602061ffff60055460281c16604051908152f35b3461053057604036600319011261053057600435612c4981610608565b602435612c55816126e5565b5f80516020614b298339815191525f90815260205260ff612c83335f80516020614a69833981519152611512565b54161561074f57612c9382611495565b60048101805460ff1690612ca682610b07565b6001821492831580612d6b575b61095657612ce293612cd78694612cd261271061ffff88161115613f53565b610b07565b612d48575b50613e62565b60405161ffff90911681526001600160a01b03918216917f000000000000000000000000000000000000000000000000000000000000000016907fe0f668057a0fd12d2d6d547cace8bafc4552dcaec3fd2cf0d22eee5c28d0ce0c90806020810161072c565b805490612d606003612b5d6002840194855490614212565b90554290555f612cdc565b50612d7583610b07565b6002831415612cb3565b3461053057602036600319011261053057600435612d9c81610608565b5f80516020614b298339815191525f90815260205260ff612dca335f80516020614a69833981519152611512565b54161561074f576001600160a01b03165f818152600a60205260409020600481018054909190600260ff8216612dff81610b07565b03610956574260029092019190915560ff191660011790557f00000000000000000000000000000000000000000000000000000000000000006001600160a01b03167f29b70564ba742cde2ca0373e60aacc468f29a2362b6339a6e6a1dd12b838ae305f80a3005b34610530575f36600319011261053057612e7f6141c7565b612e93600160ff6005541661276781610b07565b612e9c33611495565b60048101805460ff16612eae81610b07565b80156112a057600190612ec081610b07565b0361335557612ee36003830154612edd8454600286015490614212565b906138c1565b905b8115613346578160085410610ad5575f60038401556001612f07825460ff1690565b612f1081610b07565b1461333b575b612f256106e783600854613b56565b612f2d614502565b5f92612f3a6003546105d4565b6001600160a01b0381166132ad575b50612fd584612f5b612fdd9686613b56565b9083612ffc612f74612f6d85336147e1565b8095613b56565b612ff7612fef612fe9612fb9612fcc612fc6612fc0612fb961ffff6005549b612fa28d61ffff9060181c1690565b908282161561328c57505b169a60081c61ffff1690565b61ffff1690565b896138c1565b866147d0565b998a97866147d0565b9d8e88613b56565b9b5460081c61ffff1690565b836147d0565b938492613b56565b613b56565b9361303561302c6001831515988961325d575b85613234575b6130246106e7896008546138c1565b015442613b56565b62278d00900490565b6002613040336114c7565b015582613135575b5f80516020614aa9833981519152925084613105575b60408051988952602089019590955293870193909352606086019290925260808501524260a08501526001600160a01b037f000000000000000000000000000000000000000000000000000000000000000016933391859160c090a36130c7575b6105c36141ff565b6130fa7f94d5791733ed93263ff4d13f5505654d733d340533b6103097132839a7afae5f916040519182913396836138ce565b0390a35f80806130bf565b61313085337f00000000000000000000000000000000000000000000000000000000000000006144aa565b61305e565b600492602061314b6128aa6128aa6003546105d4565b60405163803db96d60e01b815295869182905afa80156105c557816131a7915f80516020614aa9833981519152965f91613205575b507f00000000000000000000000000000000000000000000000000000000000000006144aa565b60405190815233906001600160a01b037f000000000000000000000000000000000000000000000000000000000000000016907febe3db09f5650582b4782506e0d272262129183570e55fcf8768dd6e91f8c0f690602090a3613048565b613227915060203d60201161322d575b61321f81836136b0565b81019061418b565b5f613180565b503d613215565b61323d336114c7565b6132488782546138c1565b9055426003613256336114c7565b0155613015565b61327161326c866009546138c1565b600955565b61327a336114f9565b6132858682546138c1565b905561300f565b6132a8915061329e6132a39154613b95565b613baf565b6148a9565b612fad565b9360206132be6128aa6004976105d4565b60405163116e689f60e11b815296879182905afa9081156105c55761ffff612fd592612fdd975f9161330c575b5016806132fb575b509450612f49565b6133069150856147d0565b5f6132f3565b61332e915060203d602011613334575b61332681836136b0565b810190614176565b5f6132eb565b503d61331c565b426002840155612f16565b6312d37ee560e31b5f5260045ffd5b600382015490612ee5565b34610530575f36600319011261053057602061ffff60055460181c16604051908152f35b34610530575f366003190112610530576020604051611f408152f35b5f366003190112610530575f80516020614b298339815191525f90815260205260ff6133d9335f80516020614a69833981519152611512565b54161561074f576133e861410f565b6040513481527f00000000000000000000000000000000000000000000000000000000000000006001600160a01b0316907fa7c69bb7aa4c89631542ba5eae34f7a095e4ed2ee9eafaf1b8f6f56994090cd590602090a2005b346105305760203660031901126105305760043561345e81610608565b60018060a01b03165f52600b602052602060405f2054604051908152f35b34610530575f366003190112610530576003546001600160a01b031633141580613502575b61074f576005805460ff191660031790557f00000000000000000000000000000000000000000000000000000000000000006001600160a01b03167fa3e8f57569370e432557457a61c47c7c7d41865bbad80debcda2b1d85161c21f5f80a2005b505f80805260205260ff613536337fad3228b676f7d3cd4284a5443f17f1962b36e491b30a40b2405849e597ba5fb5611512565b5416156134a1565b34610530575f366003190112610530576040517f00000000000000000000000000000000000000000000000000000000000000006001600160a01b03168152602090f35b34610530575f366003190112610530576040517f00000000000000000000000000000000000000000000000000000000000000006001600160a01b03168152602090f35b34610530576020366003190112610530576004356135e381610608565b6135eb6141a0565b6001600160a01b0316801561362a57600180546001600160a01b0319811683179091556001600160a01b03165f80516020614a898339815191525f80a3005b631e4fbdf760e01b5f525f60045260245ffd5b34610530575f3660031901126105305760206040515f80516020614b298339815191528152f35b90600182811c92168015613692575b602083101461367e57565b634e487b7160e01b5f52602260045260245ffd5b91607f1691613673565b634e487b7160e01b5f52604160045260245ffd5b601f909101601f19168101906001600160401b038211908210176136d357604052565b61369c565b9060206136e99281815201906112af565b90565b34610530575f366003190112610530576040515f60045461370c81613664565b808452906001811690811561378b5750600114613740575b61138f83613734818503826136b0565b604051918291826136d8565b60045f9081525f80516020614ac9833981519152939250905b80821061377157509091508101602001613734613724565b919260018160209254838588010152019101909291613759565b60ff191660208086019190915291151560051b840190910191506137349050613724565b34610530575f366003190112610530576020600754604051908152f35b34610530576060366003190112610530576004356137e9816126e5565b602435906137f6826126e5565b60443590613803826126e5565b5f80516020614b298339815191525f90815260205260ff613831335f80516020614a69833981519152611512565b54161561074f576138559062ffff006005549160081b169062ffff00191617600555565b64ffff0000006005549161ffff60281b9060281b169260181b169066ffffffff000000191617176005555f80f35b6040513d5f823e3d90fd5b805461ff001916610200179055565b634e487b7160e01b5f52601160045260245ffd5b9062093a808201809211610c5957565b91908201809211610c5957565b908152602081019190915260400190565b6138e76141c7565b6138f081611495565b906138fa816114c7565b91613937815491600361390c856114e0565b01549260048201916001613921845460ff1690565b61392a81610b07565b14613b25575b5050613b63565b6139436111e0836114ae565b613963613951845492613b95565b61395e6002860154614233565b613bc5565b915f9182848210613acf575b61397e600191613988936138c1565b955f815501613b70565b613991816142a6565b61399a8161437c565b6139a66111e0826114e0565b83613a9f575b60018060a01b037f00000000000000000000000000000000000000000000000000000000000000001692839160018060a01b031694859384847f138b0daeb89b70681cff94e1f41abd6e4692d0ef77cda6989438867454dee59e60405183835f80516020614a298339815191525f80a3858152602090a3613a62575b50506040514281527fa70fd908b41d5f102641818b8fb6a5920da02e5aa623e09e604b8d0ab3f91345925060209150a3613a606141ff565b565b7f8f1e8a0afa367e2fccc91e695b25495774670a205fb3f2919e53f449c6dee1eb91613a93604051928392836138ce565b0390a381815f80613a28565b613aca84827f00000000000000000000000000000000000000000000000000000000000000006144aa565b6139ac565b50613ada8185613b56565b6008549190828111613b085761398892600192613afe6106e761397e948094613b56565b935091505061396f565b5081935061397e6001916139889390613afe6106e7838699613b56565b613b4f9181600261094b930190613b426003612b5d845486614212565b9055429055600754613b56565b5f80613930565b91908203918211610c5957565b805460ff19166003179055565b805460ff19166002179055565b90613b8781610b07565b60ff80198354169116179055565b9062278d0082029180830462278d001490151715610c5957565b90600c820291808304600c1490151715610c5957565b81810292918115918404141715610c5957565b90613b8781611527565b15613be957565b60405162461bcd60e51b815260206004820152600b60248201526a10db1a5999925b94185cdd60aa1b6044820152606490fd5b5f198114610c595760010190565b60405190613a6060a0836136b0565b60405190613a6060c0836136b0565b60405190613a606080836136b0565b613c6082611527565b52565b80546001600160a01b0319166001600160a01b03909216919091179055565b8151608091600391613c9d906001600160a01b031682613c63565b602084015160018201556040840151600282015501916060810151613cc181611527565b613cca81611527565b60ff801985541691161783550151613ce181611527565b613cea81611527565b61ff0082549160081b169061ff001916179055565b90949392606092608083019683526020830152604082015261156b83611527565b5f525f602052600160405f20015490565b15613d3857565b60405162461bcd60e51b815260206004820152600c60248201526b5a65726f466c6f775261746560a01b6044820152606490fd5b6001600160a01b03165f908152600a60205260409020600481015460ff16613d9381610b07565b8015908115613de6575b8115613dd2575b50613dcb57613dbf6003820154916002815491015490614212565b8101809111610c595790565b6003015490565b60039150613ddf81610b07565b145f613da4565b9050613df181610b07565b6002811490613d9d565b9060a0600391613e13600180841b0382511685613c63565b60208101518454604083015160ff60a81b90151560a81b1691151560ff908116851b90851b199091161760ff60a81b191617845560608101516001850155608081015160028501550151910155565b9062ffff0082549160081b169062ffff001916179055565b90808203613e86575050565b61ffff600480613a609484548155600185015460018201556002850154600282015560038501546003820155019201613ec360ff82541684613b7d565b5460081c1690613e62565b90808203613eda575050565b6003818192548455613ef660ff60018301541660018601613bd8565b600281015460028501550154910155565b90816020910312610530575190565b15613f1d57565b60405162461bcd60e51b815260206004820152600e60248201526d5661756c744e6f7441637469766560901b6044820152606490fd5b15613f5a57565b60405162461bcd60e51b8152602060048201526013602482015272496e76616c69645365766572616e636542707360681b6044820152606490fd5b9061ffff60a06004613a6094845181556020850151600182015560408501516002820155606085015160038201550192613fdc6080820151613fd681610b07565b85613b7d565b01511690613e62565b90606060039180518455614009602082015161400081611527565b60018601613bd8565b604081015160028501550151910155565b92919060018060a01b03168352606060208401525f60045461403b81613664565b908160608701526001811690815f146140ba575060011461406f575b506001600160a01b0390911660409390930192909252565b60045f9081525f80516020614ac9833981519152939250905b80821061409f575090915083016080016040614057565b9192600181602092546080858a010152019101909291614088565b60ff191660808781019190915291151560051b8601909101915060409050614057565b60036060613a609380518455602081015160018501556040810151600285015501519161410983611527565b01613bd8565b7f00000000000000000000000000000000000000000000000000000000000000006001600160a01b0316803b15610530575f6024916040519283809263b760faf960e01b825230600483015234905af180156105c55761416c5750565b5f613a60916136b0565b9081602091031261053057516136e9816126e5565b9081602091031261053057516136e981610608565b6001546001600160a01b031633036141b457565b63118cdaa760e01b5f523360045260245ffd5b60025f80516020614b0983398151915254146141f05760025f80516020614b0983398151915255565b633ee5aeb560e01b5f5260045ffd5b60015f80516020614b0983398151915255565b908042111561422d574203428111610c59576136e991613bc5565b50505f90565b600c81106142a0576018811061429a5760248110614294576030811061428e57603c81106142885760488110614282576054811061427c5760601161427757600990565b600890565b50600790565b50600690565b50600590565b50600490565b50600390565b50600290565b50600190565b5f5b60065481101561437857806142c260019261067b8561147c565b60038101906142d6825460ff9060081c1690565b6142df81611527565b158061436c575b6142f3575b5050016142a8565b836143049101915f8354935561388e565b6143136106e7826008546138c1565b604051905f80516020614a49833981519152848060a01b0386169280614362878060a01b037f0000000000000000000000000000000000000000000000000000000000000000169487836138ce565b0390a35f806142eb565b508381015415156142e6565b5050565b61438a6128aa6002546105d4565b6001600160a01b03811615614378576040516315b5a40360e11b815290602082806143b88660048301611865565b0381845afa9182156105c5575f92614489575b50811561448457803b15610530575f60405180926374a8f10360e01b82528183816143f98960048301611865565b03925af1908161446a575b5061440d575050565b6040519081526001600160a01b03918216917f000000000000000000000000000000000000000000000000000000000000000016907f552eaa893745cbfa1236a5bbfdc0f589d69796bb875a4653befb54cb842650b890602090a3565b806144785f61447e936136b0565b806105ca565b5f614404565b505050565b6144a391925060203d6020116126b6576126a881836136b0565b905f6143cb565b916040519163a9059cbb60e01b5f5260018060a01b031660045260245260205f60448180865af160015f51148116156144ec575b60409190915215611f745750565b6001811516611fa5573d15833b151516166144de565b60075480156145a55762278d00810290810462278d0003610c595761271061453361ffff60055460281c1683613bc5565b0490600854918210614543575050565b6040517f00000000000000000000000000000000000000000000000000000000000000006001600160a01b0316927f8327e65ce9167404b9941195592ba13c22f65b8fdc2cd381749e0a7be05c9db99282916145a09190836138ce565b0390a2565b50565b805f525f60205260ff6145be3360405f20611512565b5416156145c85750565b63e2517d3f60e01b5f523360045260245260445ffd5b805f525f60205260ff6145f48360405f20611512565b541661422d57805f525f60205261460e8260405f20611512565b805460ff1916600117905533916001600160a01b0316907f2f8788117e7eff1d82e926ec794901d17c78024a50270940304540a733656f0d5f80a4600190565b805f525f60205260ff6146648360405f20611512565b54161561422d57805f525f60205261467f8260405f20611512565b805460ff1916905533916001600160a01b0316907ff6391f5c32d9c69d2a47ea670b442974b53935d1edc7fd64eb21e047a839171b5f80a4600190565b7f00000000000000000000000000000000000000000000000000000000000000006001600160a01b031633036146ee57565b60405162461bcd60e51b815260206004820152601560248201527414d95b99195c881b9bdd08115b9d1c9e541bda5b9d605a1b6044820152606490fd5b356136e981610608565b903590601e198136030182121561053057018035906001600160401b0382116105305760200191813603831361053057565b6001600160401b0381116136d357601f01601f191660200190565b604051906147916020836136b0565b5f8252565b611f40810290808204611f401490151715610c5957612710900490565b6107d08102908082046107d01490151715610c5957612710900490565b612710916147dd91613bc5565b0490565b9190916147ed816114ae565b90600260ff60038401541661480181611527565b036148a2578154906001830194855495868403938411610c59577f07a5bcc98f7532591e8d0ea2325b51ff311671be0919df20722d8aa9ac16099e93614849614869936147b3565b8082101561489a5750945b61485f8680996138c1565b9182905554613b56565b908115614889575b6145a060405192839260018060a01b031695836138ce565b6148956111e0826114ae565b614871565b905094614854565b505f925050565b6a31a17e847807b1bc00000081111561490f576acecb8f27f4200f3a00000081111561490857676765c793fa10079d601a1b811115614901576b1027e72f1f1281308800000010156148fb57610bb890565b6109c490565b506105dc90565b506101f490565b505f90565b909291928360041161053057831161053057600401916003190190565b909160608284031261053057813561494881610608565b926020830135926040810135906001600160401b038211610530570181601f820112156105305780359061497b82614767565b9261498960405194856136b0565b8284526020838301011161053057815f926020809301838601378301015290565b600482108015614a04575b6149fa57816149cf926149c792614914565b810190614931565b905060048193929351106149f057602001516001926001600160a01b031691565b505f915081908190565b50505f905f905f90565b508160041161053057635b0e93fb60e11b6001600160e01b031982351614156149b556fef4a7c4034ae52955740ec7b3acbee8895824d069a474c03d49457e6e837856087765742933e0321b56cafe50b8e5a0d506b947a0ef4f9d918f0c0e4081f75d0972f33129726d33d0df1bb09f73a929e9ab07e39beda66c5293e29a25859eaf2a8be0079c531659141344cd1fd0a4f28419497f9722a3daafe3b4186f6b6457e0f3078b304ca324efdecd25f01460125113ff3193228063f680fa0fc1e0255b568a35acfbc15ff81a39ae7d344fd709f28e8600b4aa8c65c6b64bfe7fe36bd19bb9f13ecb5e7f0f859c44b76b3a163e504787b446da95a26bf75e53e1ff4a1e0e9b779b17422d0df92223018b32b4d1fa46e071723d6817e2486d003becc55f00fd70517941c75212b0f9013e45c47a37d6d983c5304288c7af285f2ea40cbba72f8788117e7eff1d82e926ec794901d17c78024a50270940304540a733656f0d72f33129726d33d0df1bb09f73a929e9ab07e39beda66c5293e29a25859eaf2a9b7861d0fa60a23fc64c743ef4c3839864d4237c88d762f1e50f4031d5159575ad3228b676f7d3cd4284a5443f17f1962b36e491b30a40b2405849e597ba5fb553fb4bd5766e26ca66231c3c3e69225aeaf3cee6f2ab41d0730ec04be16f9a8b2a287b3aa9cbc4866dd3c137fd192f1c5d81e788c6916b80b84b385305538d232f8788117e7eff1d82e926ec794901d17c78024a50270940304540a733656f0d53fb4bd5766e26ca66231c3c3e69225aeaf3cee6f2ab41d0730ec04be16f9a8bad3228b676f7d3cd4284a5443f17f1962b36e491b30a40b2405849e597ba5fb5","linkReferences":{}},"methodIdentifiers":{"DEFAULT_ADMIN_ROLE()":"a217fddf","ENTRY_POINT()":"94430fa5","IDRX()":"ef187921","MAX_PLATFORM_FEE_BPS()":"8d01513c","SUPERADMIN_ROLE()":"fce0c454","allVaults(uint256)":"9094a91e","companyVaults(address)":"da98871e","deployVault(address,string,address)":"dda0c721","emergencyFreezeAll()":"62c59212","getRoleAdmin(bytes32)":"248a9ca3","getTotalVaults()":"5486f100","grantRole(bytes32,address)":"2f2ff15d","hasRole(bytes32,address)":"91d14854","platformFeeBps()":"22dcd13e","protocolTreasury()":"803db96d","renounceRole(bytes32,address)":"36568abe","revokeRole(bytes32,address)":"d547741f","setPlatformFee(uint16)":"5cbc742c","setProtocolTreasury(address)":"0c5a61f8","supportsInterface(bytes4)":"01ffc9a7"},"id":112}